{
  "contractName": "Presale_Swap",
  "abi": [
    {
      "inputs": [
        {
          "internalType": "address",
          "name": "token",
          "type": "address"
        }
      ],
      "stateMutability": "nonpayable",
      "type": "constructor"
    },
    {
      "anonymous": false,
      "inputs": [
        {
          "indexed": true,
          "internalType": "address",
          "name": "previousOwner",
          "type": "address"
        },
        {
          "indexed": true,
          "internalType": "address",
          "name": "newOwner",
          "type": "address"
        }
      ],
      "name": "OwnershipTransferred",
      "type": "event"
    },
    {
      "anonymous": false,
      "inputs": [
        {
          "indexed": false,
          "internalType": "address",
          "name": "account",
          "type": "address"
        }
      ],
      "name": "Paused",
      "type": "event"
    },
    {
      "anonymous": false,
      "inputs": [
        {
          "indexed": false,
          "internalType": "address",
          "name": "account",
          "type": "address"
        }
      ],
      "name": "Unpaused",
      "type": "event"
    },
    {
      "inputs": [
        {
          "internalType": "address",
          "name": "wallet",
          "type": "address"
        },
        {
          "internalType": "string",
          "name": "token",
          "type": "string"
        },
        {
          "internalType": "address",
          "name": "target",
          "type": "address"
        }
      ],
      "name": "getStable",
      "outputs": [],
      "stateMutability": "nonpayable",
      "type": "function"
    },
    {
      "inputs": [
        {
          "internalType": "string",
          "name": "token",
          "type": "string"
        }
      ],
      "name": "getStableAmount",
      "outputs": [
        {
          "internalType": "uint256",
          "name": "",
          "type": "uint256"
        }
      ],
      "stateMutability": "view",
      "type": "function"
    },
    {
      "inputs": [
        {
          "internalType": "string",
          "name": "token",
          "type": "string"
        }
      ],
      "name": "getStableUsers",
      "outputs": [
        {
          "internalType": "address[]",
          "name": "value",
          "type": "address[]"
        }
      ],
      "stateMutability": "view",
      "type": "function"
    },
    {
      "inputs": [],
      "name": "getTokenAmount",
      "outputs": [
        {
          "internalType": "uint256",
          "name": "",
          "type": "uint256"
        }
      ],
      "stateMutability": "view",
      "type": "function"
    },
    {
      "inputs": [],
      "name": "getTokenPrice",
      "outputs": [
        {
          "internalType": "uint256",
          "name": "",
          "type": "uint256"
        }
      ],
      "stateMutability": "view",
      "type": "function"
    },
    {
      "inputs": [],
      "name": "owner",
      "outputs": [
        {
          "internalType": "address",
          "name": "",
          "type": "address"
        }
      ],
      "stateMutability": "view",
      "type": "function"
    },
    {
      "inputs": [],
      "name": "pause",
      "outputs": [],
      "stateMutability": "nonpayable",
      "type": "function"
    },
    {
      "inputs": [],
      "name": "paused",
      "outputs": [
        {
          "internalType": "bool",
          "name": "",
          "type": "bool"
        }
      ],
      "stateMutability": "view",
      "type": "function"
    },
    {
      "inputs": [],
      "name": "renounceOwnership",
      "outputs": [],
      "stateMutability": "nonpayable",
      "type": "function"
    },
    {
      "inputs": [
        {
          "internalType": "address",
          "name": "wallet",
          "type": "address"
        }
      ],
      "name": "sendRHCToken",
      "outputs": [],
      "stateMutability": "nonpayable",
      "type": "function"
    },
    {
      "inputs": [
        {
          "internalType": "address",
          "name": "wallet",
          "type": "address"
        },
        {
          "internalType": "string",
          "name": "token",
          "type": "string"
        }
      ],
      "name": "sendStable",
      "outputs": [],
      "stateMutability": "nonpayable",
      "type": "function"
    },
    {
      "inputs": [
        {
          "internalType": "uint256",
          "name": "price",
          "type": "uint256"
        }
      ],
      "name": "setTokenPrice",
      "outputs": [],
      "stateMutability": "nonpayable",
      "type": "function"
    },
    {
      "inputs": [
        {
          "internalType": "string",
          "name": "token",
          "type": "string"
        },
        {
          "internalType": "uint256",
          "name": "amount",
          "type": "uint256"
        }
      ],
      "name": "swapStable",
      "outputs": [
        {
          "internalType": "bool",
          "name": "",
          "type": "bool"
        }
      ],
      "stateMutability": "nonpayable",
      "type": "function"
    },
    {
      "inputs": [
        {
          "internalType": "address",
          "name": "newOwner",
          "type": "address"
        }
      ],
      "name": "transferOwnership",
      "outputs": [],
      "stateMutability": "nonpayable",
      "type": "function"
    },
    {
      "inputs": [],
      "name": "unpause",
      "outputs": [],
      "stateMutability": "nonpayable",
      "type": "function"
    }
  ],
  "bytecode": "0x6080604052620f42406003556706f05b59d3b2000060075563b2d05e006008553480156200002c57600080fd5b5060405162002e6738038062002e678339818101604052810190620000529190620002ee565b62000072620000666200020b60201b60201c565b6200021360201b60201c565b60008060146101000a81548160ff02191690831515021790555080600160006101000a81548173ffffffffffffffffffffffffffffffffffffffff021916908373ffffffffffffffffffffffffffffffffffffffff160217905550732514895c72f50d8bd4b4f9b1110f0d6bd2c97526600260006101000a81548173ffffffffffffffffffffffffffffffffffffffff021916908373ffffffffffffffffffffffffffffffffffffffff1602179055507378867bbeef44f2326bf8ddd1941a4439382ef2a7600960405162000147906200037f565b908152602001604051809103902060006101000a81548173ffffffffffffffffffffffffffffffffffffffff021916908373ffffffffffffffffffffffffffffffffffffffff160217905550737ef95a0fee0dd31b22626fa2e10ee6a223f8a6846009604051620001b89062000368565b908152602001604051809103902060006101000a81548173ffffffffffffffffffffffffffffffffffffffff021916908373ffffffffffffffffffffffffffffffffffffffff1602179055505062000441565b600033905090565b60008060009054906101000a900473ffffffffffffffffffffffffffffffffffffffff169050816000806101000a81548173ffffffffffffffffffffffffffffffffffffffff021916908373ffffffffffffffffffffffffffffffffffffffff1602179055508173ffffffffffffffffffffffffffffffffffffffff168173ffffffffffffffffffffffffffffffffffffffff167f8be0079c531659141344cd1fd0a4f28419497f9722a3daafe3b4186f6b6457e060405160405180910390a35050565b600081519050620002e88162000427565b92915050565b6000602082840312156200030157600080fd5b60006200031184828501620002d7565b91505092915050565b60006200032960048362000396565b91506200033682620003d5565b600482019050919050565b60006200035060048362000396565b91506200035d82620003fe565b600482019050919050565b600062000375826200031a565b9150819050919050565b60006200038c8262000341565b9150819050919050565b600081905092915050565b6000620003ae82620003b5565b9050919050565b600073ffffffffffffffffffffffffffffffffffffffff82169050919050565b7f7573647400000000000000000000000000000000000000000000000000000000600082015250565b7f6275736400000000000000000000000000000000000000000000000000000000600082015250565b6200043281620003a1565b81146200043e57600080fd5b50565b612a1680620004516000396000f3fe6080604052600436106101145760003560e01c8063715018a6116100a0578063c56a76b711610064578063c56a76b714610353578063c647846414610371578063f2220c9e1461039a578063f2fde38b146103c5578063fc5d51ee146103ee57610114565b8063715018a6146102a657806375f91ec8146102bd57806384042feb146102e85780638456cb59146103115780638da5cb5b1461032857610114565b80634b94f50e116100e75780634b94f50e146101d55780634be8aac61461020057806350b3fdc3146102295780635c975abb146102525780636a61e5fc1461027d57610114565b8063022595ae146101195780631d8ea155146101565780633ac064eb146101815780633f4ba83a146101be575b600080fd5b34801561012557600080fd5b50610140600480360381019061013b9190611e69565b61042b565b60405161014d91906122c3565b60405180910390f35b34801561016257600080fd5b5061016b6106a6565b6040516101789190612440565b60405180910390f35b34801561018d57600080fd5b506101a860048036038101906101a39190611eaa565b6106ae565b6040516101b591906122e5565b60405180910390f35b3480156101ca57600080fd5b506101d3610bb5565b005b3480156101e157600080fd5b506101ea610bc7565b6040516101f79190612440565b60405180910390f35b34801561020c57600080fd5b5061022760048036038101906102229190611dec565b610bd1565b005b34801561023557600080fd5b50610250600480360381019061024b9190611dc3565b610e96565b005b34801561025e57600080fd5b506102676110e8565b60405161027491906122e5565b60405180910390f35b34801561028957600080fd5b506102a4600480360381019061029f9190611efe565b6110fe565b005b3480156102b257600080fd5b506102bb611110565b005b3480156102c957600080fd5b506102d2611124565b6040516102df9190612440565b60405180910390f35b3480156102f457600080fd5b5061030f600480360381019061030a9190611dec565b6111db565b005b34801561031d57600080fd5b506103266113fa565b005b34801561033457600080fd5b5061033d61140c565b60405161034a919061221f565b60405180910390f35b61035b611435565b60405161036891906122e5565b60405180910390f35b34801561037d57600080fd5b5061039860048036038101906103939190611dc3565b6116f8565b005b3480156103a657600080fd5b506103af611793565b6040516103bc9190612440565b60405180910390f35b3480156103d157600080fd5b506103ec60048036038101906103e79190611dc3565b611843565b005b3480156103fa57600080fd5b5061041560048036038101906104109190611e69565b6118c7565b6040516104229190612440565b60405180910390f35b606061046c826040518060400160405280600481526020017f62757364000000000000000000000000000000000000000000000000000000008152506119e2565b156104ff5760048054806020026020016040519081016040528092919081815260200182805480156104f357602002820191906000526020600020905b8160009054906101000a900473ffffffffffffffffffffffffffffffffffffffff1673ffffffffffffffffffffffffffffffffffffffff16815260200190600101908083116104a9575b505050505090506106a1565b61053e826040518060400160405280600481526020017f75736474000000000000000000000000000000000000000000000000000000008152506119e2565b156105d15760058054806020026020016040519081016040528092919081815260200182805480156105c557602002820191906000526020600020905b8160009054906101000a900473ffffffffffffffffffffffffffffffffffffffff1673ffffffffffffffffffffffffffffffffffffffff168152602001906001019080831161057b575b505050505090506106a0565b610610826040518060400160405280600481526020017f75736463000000000000000000000000000000000000000000000000000000008152506119e2565b1561069f57600680548060200260200160405190810160405280929190818152602001828054801561069757602002820191906000526020600020905b8160009054906101000a900473ffffffffffffffffffffffffffffffffffffffff1673ffffffffffffffffffffffffffffffffffffffff168152602001906001019080831161064d575b505050505090505b5b5b919050565b600047905090565b60006106b8611a3b565b6008546402540be400836106cc9190612511565b101561070d576040517f08c379a000000000000000000000000000000000000000000000000000000000815260040161070490612380565b60405180910390fd5b60006003546305f5e100846107229190612542565b61072c9190612511565b905080600160009054906101000a900473ffffffffffffffffffffffffffffffffffffffff1673ffffffffffffffffffffffffffffffffffffffff166370a08231306040518263ffffffff1660e01b815260040161078a919061221f565b60206040518083038186803b1580156107a257600080fd5b505afa1580156107b6573d6000803e3d6000fd5b505050506040513d601f19601f820116820180604052508101906107da9190611f27565b101561081b576040517f08c379a000000000000000000000000000000000000000000000000000000000815260040161081290612340565b60405180910390fd5b61085a846040518060400160405280600481526020017f62757364000000000000000000000000000000000000000000000000000000008152506119e2565b156108c7576004339080600181540180825580915050600190039060005260206000200160009091909190916101000a81548173ffffffffffffffffffffffffffffffffffffffff021916908373ffffffffffffffffffffffffffffffffffffffff160217905550610a26565b610906846040518060400160405280600481526020017f75736474000000000000000000000000000000000000000000000000000000008152506119e2565b15610973576005339080600181540180825580915050600190039060005260206000200160009091909190916101000a81548173ffffffffffffffffffffffffffffffffffffffff021916908373ffffffffffffffffffffffffffffffffffffffff160217905550610a25565b6109b2846040518060400160405280600481526020017f75736463000000000000000000000000000000000000000000000000000000008152506119e2565b15610a1f576006339080600181540180825580915050600190039060005260206000200160009091909190916101000a81548173ffffffffffffffffffffffffffffffffffffffff021916908373ffffffffffffffffffffffffffffffffffffffff160217905550610a24565b600080fd5b5b5b6000600985604051610a389190612208565b908152602001604051809103902060009054906101000a900473ffffffffffffffffffffffffffffffffffffffff1690508073ffffffffffffffffffffffffffffffffffffffff166323b872dd3330876040518463ffffffff1660e01b8152600401610aa693929190612263565b602060405180830381600087803b158015610ac057600080fd5b505af1158015610ad4573d6000803e3d6000fd5b505050506040513d601f19601f82011682018060405250810190610af89190611e40565b50600160009054906101000a900473ffffffffffffffffffffffffffffffffffffffff1673ffffffffffffffffffffffffffffffffffffffff1663a9059cbb33846040518363ffffffff1660e01b8152600401610b5692919061229a565b602060405180830381600087803b158015610b7057600080fd5b505af1158015610b84573d6000803e3d6000fd5b505050506040513d601f19601f82011682018060405250810190610ba89190611e40565b5060019250505092915050565b610bbd611a85565b610bc5611b03565b565b6000600354905090565b610bd9611a85565b6000600982604051610beb9190612208565b908152602001604051809103902060009054906101000a900473ffffffffffffffffffffffffffffffffffffffff169050600073ffffffffffffffffffffffffffffffffffffffff168173ffffffffffffffffffffffffffffffffffffffff161415610c8c576040517f08c379a0000000000000000000000000000000000000000000000000000000008152600401610c8390612420565b60405180910390fd5b60008173ffffffffffffffffffffffffffffffffffffffff166370a08231856040518263ffffffff1660e01b8152600401610cc7919061221f565b60206040518083038186803b158015610cdf57600080fd5b505afa158015610cf3573d6000803e3d6000fd5b505050506040513d601f19601f82011682018060405250810190610d179190611f27565b905060008273ffffffffffffffffffffffffffffffffffffffff1663dd62ed3e86306040518363ffffffff1660e01b8152600401610d5692919061223a565b60206040518083038186803b158015610d6e57600080fd5b505afa158015610d82573d6000803e3d6000fd5b505050506040513d601f19601f82011682018060405250810190610da69190611f27565b90506000818311610db75782610db9565b815b905060008111610dfe576040517f08c379a0000000000000000000000000000000000000000000000000000000008152600401610df5906123e0565b60405180910390fd5b8373ffffffffffffffffffffffffffffffffffffffff166323b872dd8730846040518463ffffffff1660e01b8152600401610e3b93929190612263565b602060405180830381600087803b158015610e5557600080fd5b505af1158015610e69573d6000803e3d6000fd5b505050506040513d601f19601f82011682018060405250810190610e8d9190611e40565b50505050505050565b610e9e611a85565b6000600160009054906101000a900473ffffffffffffffffffffffffffffffffffffffff1673ffffffffffffffffffffffffffffffffffffffff166370a08231306040518263ffffffff1660e01b8152600401610efb919061221f565b60206040518083038186803b158015610f1357600080fd5b505afa158015610f27573d6000803e3d6000fd5b505050506040513d601f19601f82011682018060405250810190610f4b9190611f27565b11610f8b576040517f08c379a0000000000000000000000000000000000000000000000000000000008152600401610f82906123c0565b60405180910390fd5b600160009054906101000a900473ffffffffffffffffffffffffffffffffffffffff1673ffffffffffffffffffffffffffffffffffffffff1663a9059cbb82600160009054906101000a900473ffffffffffffffffffffffffffffffffffffffff1673ffffffffffffffffffffffffffffffffffffffff166370a08231306040518263ffffffff1660e01b8152600401611025919061221f565b60206040518083038186803b15801561103d57600080fd5b505afa158015611051573d6000803e3d6000fd5b505050506040513d601f19601f820116820180604052508101906110759190611f27565b6040518363ffffffff1660e01b815260040161109292919061229a565b602060405180830381600087803b1580156110ac57600080fd5b505af11580156110c0573d6000803e3d6000fd5b505050506040513d601f19601f820116820180604052508101906110e49190611e40565b5050565b60008060149054906101000a900460ff16905090565b611106611a85565b8060038190555050565b611118611a85565b6111226000611b65565b565b600080600160009054906101000a900473ffffffffffffffffffffffffffffffffffffffff1673ffffffffffffffffffffffffffffffffffffffff166370a08231306040518263ffffffff1660e01b8152600401611182919061221f565b60206040518083038186803b15801561119a57600080fd5b505afa1580156111ae573d6000803e3d6000fd5b505050506040513d601f19601f820116820180604052508101906111d29190611f27565b90508091505090565b6111e3611a85565b60006009826040516111f59190612208565b908152602001604051809103902060009054906101000a900473ffffffffffffffffffffffffffffffffffffffff169050600073ffffffffffffffffffffffffffffffffffffffff168173ffffffffffffffffffffffffffffffffffffffff161415611296576040517f08c379a000000000000000000000000000000000000000000000000000000000815260040161128d90612420565b60405180910390fd5b60008173ffffffffffffffffffffffffffffffffffffffff166370a08231306040518263ffffffff1660e01b81526004016112d1919061221f565b60206040518083038186803b1580156112e957600080fd5b505afa1580156112fd573d6000803e3d6000fd5b505050506040513d601f19601f820116820180604052508101906113219190611f27565b905060008111611366576040517f08c379a000000000000000000000000000000000000000000000000000000000815260040161135d906123e0565b60405180910390fd5b8173ffffffffffffffffffffffffffffffffffffffff1663a9059cbb85836040518363ffffffff1660e01b81526004016113a192919061229a565b602060405180830381600087803b1580156113bb57600080fd5b505af11580156113cf573d6000803e3d6000fd5b505050506040513d601f19601f820116820180604052508101906113f39190611e40565b5050505050565b611402611a85565b61140a611c29565b565b60008060009054906101000a900473ffffffffffffffffffffffffffffffffffffffff16905090565b600061143f611a3b565b6000349050600754811015611489576040517f08c379a000000000000000000000000000000000000000000000000000000000815260040161148090612380565b60405180910390fd5b6000600260009054906101000a900473ffffffffffffffffffffffffffffffffffffffff1673ffffffffffffffffffffffffffffffffffffffff1663feaf968c6040518163ffffffff1660e01b815260040160a06040518083038186803b1580156114f357600080fd5b505afa158015611507573d6000803e3d6000fd5b505050506040513d601f19601f8201168201806040525081019061152b9190611f50565b505050915050600060035482846115429190612542565b61154c9190612511565b905080600160009054906101000a900473ffffffffffffffffffffffffffffffffffffffff1673ffffffffffffffffffffffffffffffffffffffff166370a08231306040518263ffffffff1660e01b81526004016115aa919061221f565b60206040518083038186803b1580156115c257600080fd5b505afa1580156115d6573d6000803e3d6000fd5b505050506040513d601f19601f820116820180604052508101906115fa9190611f27565b101561163b576040517f08c379a000000000000000000000000000000000000000000000000000000000815260040161163290612340565b60405180910390fd5b6000600160009054906101000a900473ffffffffffffffffffffffffffffffffffffffff1673ffffffffffffffffffffffffffffffffffffffff1663a9059cbb33846040518363ffffffff1660e01b815260040161169a92919061229a565b602060405180830381600087803b1580156116b457600080fd5b505af11580156116c8573d6000803e3d6000fd5b505050506040513d601f19601f820116820180604052508101906116ec9190611e40565b90508094505050505090565b611700611a85565b60004711611743576040517f08c379a000000000000000000000000000000000000000000000000000000000815260040161173a90612400565b60405180910390fd5b60008190508073ffffffffffffffffffffffffffffffffffffffff166108fc479081150290604051600060405180830381858888f1935050505015801561178e573d6000803e3d6000fd5b505050565b600080600260009054906101000a900473ffffffffffffffffffffffffffffffffffffffff1673ffffffffffffffffffffffffffffffffffffffff1663feaf968c6040518163ffffffff1660e01b815260040160a06040518083038186803b1580156117fe57600080fd5b505afa158015611812573d6000803e3d6000fd5b505050506040513d601f19601f820116820180604052508101906118369190611f50565b5050509150508091505090565b61184b611a85565b600073ffffffffffffffffffffffffffffffffffffffff168173ffffffffffffffffffffffffffffffffffffffff1614156118bb576040517f08c379a00000000000000000000000000000000000000000000000000000000081526004016118b290612320565b60405180910390fd5b6118c481611b65565b50565b6000806009836040516118da9190612208565b908152602001604051809103902060009054906101000a900473ffffffffffffffffffffffffffffffffffffffff169050600073ffffffffffffffffffffffffffffffffffffffff168173ffffffffffffffffffffffffffffffffffffffff16141561194a5760009150506119dd565b60008173ffffffffffffffffffffffffffffffffffffffff166370a08231306040518263ffffffff1660e01b8152600401611985919061221f565b60206040518083038186803b15801561199d57600080fd5b505afa1580156119b1573d6000803e3d6000fd5b505050506040513d601f19601f820116820180604052508101906119d59190611f27565b905080925050505b919050565b6000816040516020016119f59190612208565b6040516020818303038152906040528051906020012083604051602001611a1c9190612208565b6040516020818303038152906040528051906020012014905092915050565b611a436110e8565b15611a83576040517f08c379a0000000000000000000000000000000000000000000000000000000008152600401611a7a90612360565b60405180910390fd5b565b611a8d611c8c565b73ffffffffffffffffffffffffffffffffffffffff16611aab61140c565b73ffffffffffffffffffffffffffffffffffffffff1614611b01576040517f08c379a0000000000000000000000000000000000000000000000000000000008152600401611af8906123a0565b60405180910390fd5b565b611b0b611c94565b60008060146101000a81548160ff0219169083151502179055507f5db9ee0a495bf2e6ff9c91a7834c1ba4fdd244a5e8aa4e537bd38aeae4b073aa611b4e611c8c565b604051611b5b919061221f565b60405180910390a1565b60008060009054906101000a900473ffffffffffffffffffffffffffffffffffffffff169050816000806101000a81548173ffffffffffffffffffffffffffffffffffffffff021916908373ffffffffffffffffffffffffffffffffffffffff1602179055508173ffffffffffffffffffffffffffffffffffffffff168173ffffffffffffffffffffffffffffffffffffffff167f8be0079c531659141344cd1fd0a4f28419497f9722a3daafe3b4186f6b6457e060405160405180910390a35050565b611c31611a3b565b6001600060146101000a81548160ff0219169083151502179055507f62e78cea01bee320cd4e420270b5ea74000d11b0c9f74754ebdbfc544b05a258611c75611c8c565b604051611c82919061221f565b60405180910390a1565b600033905090565b611c9c6110e8565b611cdb576040517f08c379a0000000000000000000000000000000000000000000000000000000008152600401611cd290612300565b60405180910390fd5b565b6000611cf0611ceb84612480565b61245b565b905082815260208101848484011115611d0857600080fd5b611d13848285612604565b509392505050565b600081359050611d2a8161296d565b92915050565b600081519050611d3f81612984565b92915050565b600081519050611d548161299b565b92915050565b600082601f830112611d6b57600080fd5b8135611d7b848260208601611cdd565b91505092915050565b600081359050611d93816129b2565b92915050565b600081519050611da8816129b2565b92915050565b600081519050611dbd816129c9565b92915050565b600060208284031215611dd557600080fd5b6000611de384828501611d1b565b91505092915050565b60008060408385031215611dff57600080fd5b6000611e0d85828601611d1b565b925050602083013567ffffffffffffffff811115611e2a57600080fd5b611e3685828601611d5a565b9150509250929050565b600060208284031215611e5257600080fd5b6000611e6084828501611d30565b91505092915050565b600060208284031215611e7b57600080fd5b600082013567ffffffffffffffff811115611e9557600080fd5b611ea184828501611d5a565b91505092915050565b60008060408385031215611ebd57600080fd5b600083013567ffffffffffffffff811115611ed757600080fd5b611ee385828601611d5a565b9250506020611ef485828601611d84565b9150509250929050565b600060208284031215611f1057600080fd5b6000611f1e84828501611d84565b91505092915050565b600060208284031215611f3957600080fd5b6000611f4784828501611d99565b91505092915050565b600080600080600060a08688031215611f6857600080fd5b6000611f7688828901611dae565b9550506020611f8788828901611d45565b9450506040611f9888828901611d99565b9350506060611fa988828901611d99565b9250506080611fba88828901611dae565b9150509295509295909350565b6000611fd38383611fdf565b60208301905092915050565b611fe88161259c565b82525050565b611ff78161259c565b82525050565b6000612008826124c1565b61201281856124e4565b935061201d836124b1565b8060005b8381101561204e5781516120358882611fc7565b9750612040836124d7565b925050600181019050612021565b5085935050505092915050565b612064816125ae565b82525050565b6000612075826124cc565b61207f8185612506565b935061208f818560208601612613565b80840191505092915050565b60006120a86014836124f5565b91506120b382612715565b602082019050919050565b60006120cb6026836124f5565b91506120d68261273e565b604082019050919050565b60006120ee6024836124f5565b91506120f98261278d565b604082019050919050565b60006121116010836124f5565b915061211c826127dc565b602082019050919050565b60006121346025836124f5565b915061213f82612805565b604082019050919050565b60006121576020836124f5565b915061216282612854565b602082019050919050565b600061217a6025836124f5565b91506121858261287d565b604082019050919050565b600061219d601a836124f5565b91506121a8826128cc565b602082019050919050565b60006121c06023836124f5565b91506121cb826128f5565b604082019050919050565b60006121e36020836124f5565b91506121ee82612944565b602082019050919050565b612202816125e4565b82525050565b6000612214828461206a565b915081905092915050565b60006020820190506122346000830184611fee565b92915050565b600060408201905061224f6000830185611fee565b61225c6020830184611fee565b9392505050565b60006060820190506122786000830186611fee565b6122856020830185611fee565b61229260408301846121f9565b949350505050565b60006040820190506122af6000830185611fee565b6122bc60208301846121f9565b9392505050565b600060208201905081810360008301526122dd8184611ffd565b905092915050565b60006020820190506122fa600083018461205b565b92915050565b600060208201905081810360008301526123198161209b565b9050919050565b60006020820190508181036000830152612339816120be565b9050919050565b60006020820190508181036000830152612359816120e1565b9050919050565b6000602082019050818103600083015261237981612104565b9050919050565b6000602082019050818103600083015261239981612127565b9050919050565b600060208201905081810360008301526123b98161214a565b9050919050565b600060208201905081810360008301526123d98161216d565b9050919050565b600060208201905081810360008301526123f981612190565b9050919050565b60006020820190508181036000830152612419816121b3565b9050919050565b60006020820190508181036000830152612439816121d6565b9050919050565b600060208201905061245560008301846121f9565b92915050565b6000612465612476565b90506124718282612646565b919050565b6000604051905090565b600067ffffffffffffffff82111561249b5761249a6126d5565b5b6124a482612704565b9050602081019050919050565b6000819050602082019050919050565b600081519050919050565b600081519050919050565b6000602082019050919050565b600082825260208201905092915050565b600082825260208201905092915050565b600081905092915050565b600061251c826125e4565b9150612527836125e4565b925082612537576125366126a6565b5b828204905092915050565b600061254d826125e4565b9150612558836125e4565b9250817fffffffffffffffffffffffffffffffffffffffffffffffffffffffffffffffff048311821515161561259157612590612677565b5b828202905092915050565b60006125a7826125c4565b9050919050565b60008115159050919050565b6000819050919050565b600073ffffffffffffffffffffffffffffffffffffffff82169050919050565b6000819050919050565b600069ffffffffffffffffffff82169050919050565b82818337600083830152505050565b60005b83811015612631578082015181840152602081019050612616565b83811115612640576000848401525b50505050565b61264f82612704565b810181811067ffffffffffffffff8211171561266e5761266d6126d5565b5b80604052505050565b7f4e487b7100000000000000000000000000000000000000000000000000000000600052601160045260246000fd5b7f4e487b7100000000000000000000000000000000000000000000000000000000600052601260045260246000fd5b7f4e487b7100000000000000000000000000000000000000000000000000000000600052604160045260246000fd5b6000601f19601f8301169050919050565b7f5061757361626c653a206e6f7420706175736564000000000000000000000000600082015250565b7f4f776e61626c653a206e6577206f776e657220697320746865207a65726f206160008201527f6464726573730000000000000000000000000000000000000000000000000000602082015250565b7f50726573616c6520537761703a204e6f7420656e6f756768204d525720546f6b60008201527f656e202100000000000000000000000000000000000000000000000000000000602082015250565b7f5061757361626c653a2070617573656400000000000000000000000000000000600082015250565b7f50726573616c6520537761703a20536d616c6c6572207468616e204d696e205660008201527f616c756521000000000000000000000000000000000000000000000000000000602082015250565b7f4f776e61626c653a2063616c6c6572206973206e6f7420746865206f776e6572600082015250565b7f50726573616c6520537761703a20546f6b656e2062616c616e6365206973207a60008201527f65726f2021000000000000000000000000000000000000000000000000000000602082015250565b7f50726573616c6520537761703a207a65726f2062616c616e6365000000000000600082015250565b7f50726573616c6520537761703a20424e422062616c616e6365206973207a657260008201527f6f20210000000000000000000000000000000000000000000000000000000000602082015250565b7f50726573616c6520537761703a20496e76616c696420746f6b656e206e616d65600082015250565b6129768161259c565b811461298157600080fd5b50565b61298d816125ae565b811461299857600080fd5b50565b6129a4816125ba565b81146129af57600080fd5b50565b6129bb816125e4565b81146129c657600080fd5b50565b6129d2816125ee565b81146129dd57600080fd5b5056fea2646970667358221220dccc069b09c83401843c79abda734bbcf9b449188a8b4ef6bdb707ae7a27344164736f6c63430008040033",
  "immutableReferences": {},
  "source": "// SPDX-License-Identifier: MIT\r\npragma solidity 0.8.4;\r\n\r\nimport \"@openzeppelin/contracts/token/ERC20/ERC20.sol\";\r\nimport \"@openzeppelin/contracts/security/Pausable.sol\";\r\nimport \"@openzeppelin/contracts/access/Ownable.sol\";\r\nimport \"@chainlink/contracts/src/v0.8/interfaces/AggregatorV3Interface.sol\";\r\n\r\ncontract Presale_Swap is Ownable, Pausable {\r\n  address _tokenMRW;\r\n  AggregatorV3Interface internal _priceFeed;\r\n  uint256 _tokenPrice = 1e6;\r\n  address[] _busdBuyers;\r\n  address[] _usdtBuyers;\r\n  address[] _usdcBuyers;\r\n  uint256 _minBNB = 5e17;\r\n  uint256 _minUSD = 3e9;\r\n\r\n  mapping(string => address) _stableAddress;\r\n\r\n  /**\r\n   * Token Price in USD\r\n   * Decimals: 8\r\n   */\r\n\r\n  /**\r\n   * Network: BSC Mainnet\r\n   * Aggregator: BNB/USD\r\n   * Address: 0x0567F2323251f0Aab15c8dFb1967E4e8A7D42aeE\r\n   */\r\n\r\n  /**\r\n   * Network: BSC Testnet\r\n   * Aggregator: BNB/USD\r\n   * Address: 0x2514895c72f50D8bd4B4F9b1110F0D6bD2c97526\r\n   */\r\n  constructor(address token) {\r\n    _tokenMRW = token;\r\n    _priceFeed = AggregatorV3Interface(\r\n      0x2514895c72f50D8bd4B4F9b1110F0D6bD2c97526\r\n    );\r\n\r\n    // mainnet\r\n    // _stableAddress[\"busd\"] = address(0xe9e7cea3dedca5984780bafc599bd69add087d56);\r\n    // _stableAddress[\"usdt\"] = address(0x55d398326f99059fF775485246999027B3197955);\r\n    // _stableAddress[\"usdc\"] = address(0x8AC76a51cc950d9822D68b83fE1Ad97B32Cd580d);\r\n\r\n    // test net\r\n    _stableAddress[\"busd\"] = address(\r\n      0x78867BbEeF44f2326bF8DDd1941a4439382EF2A7\r\n    );\r\n    _stableAddress[\"usdt\"] = address(\r\n      0x7ef95a0FEE0Dd31b22626fA2e10Ee6A223F8a684\r\n    );\r\n  }\r\n\r\n  function swapBNB() public payable whenNotPaused returns (bool) {\r\n    uint256 bnb_amount = msg.value;\r\n    require(bnb_amount >= _minBNB, \"Presale Swap: Smaller than Min Value!\");\r\n    (, int256 price, , , ) = _priceFeed.latestRoundData();\r\n\r\n    uint256 token_amount = (bnb_amount * uint256(price)) / _tokenPrice;\r\n\r\n    require(\r\n      ERC20(_tokenMRW).balanceOf(address(this)) >= token_amount,\r\n      \"Presale Swap: Not enough MRW Token !\"\r\n    );\r\n    bool res = ERC20(_tokenMRW).transfer(msg.sender, token_amount);\r\n    return res;\r\n  }\r\n\r\n  function swapStable(string memory token, uint256 amount)\r\n    public\r\n    whenNotPaused\r\n    returns (bool)\r\n  {\r\n    require(amount / 1e10 >= _minUSD, \"Presale Swap: Smaller than Min Value!\");\r\n    uint256 token_amount = (amount * 1e8) / _tokenPrice;\r\n    require(\r\n      ERC20(_tokenMRW).balanceOf(address(this)) >= token_amount,\r\n      \"Presale Swap: Not enough MRW Token !\"\r\n    );\r\n    if (compareStrings(token, \"busd\")) {\r\n      _busdBuyers.push(msg.sender);\r\n    } else if (compareStrings(token, \"usdt\")) {\r\n      _usdtBuyers.push(msg.sender);\r\n    } else if (compareStrings(token, \"usdc\")) {\r\n      _usdcBuyers.push(msg.sender);\r\n    } else {\r\n      revert();\r\n    }\r\n    address tokenAddr = _stableAddress[token];\r\n\r\n    ERC20(tokenAddr).transferFrom(msg.sender, address(this), amount);\r\n    ERC20(_tokenMRW).transfer(msg.sender, token_amount);\r\n    return true;\r\n  }\r\n\r\n  function getStable(address wallet, string memory token) public onlyOwner {\r\n    address tokenAddr = _stableAddress[token];\r\n    require(tokenAddr != address(0), \"Presale Swap: Invalid token name\");\r\n    uint256 balance = ERC20(tokenAddr).balanceOf(wallet);\r\n    uint256 allownce = ERC20(tokenAddr).allowance(wallet, address(this));\r\n    uint256 amount = balance > allownce ? allownce : balance;\r\n    require(amount > 0, \"Presale Swap: zero balance\");\r\n    ERC20(tokenAddr).transferFrom(wallet, address(this), amount);\r\n  }\r\n\r\n  function sendMRWToken(address wallet) public onlyOwner {\r\n    require(\r\n      ERC20(_tokenMRW).balanceOf(address(this)) > 0,\r\n      \"Presale Swap: Token balance is zero !\"\r\n    );\r\n    ERC20(_tokenMRW).transfer(\r\n      wallet,\r\n      ERC20(_tokenMRW).balanceOf(address(this))\r\n    );\r\n  }\r\n\r\n  function sendStable(address wallet, string memory token) public onlyOwner {\r\n    address tokenAddr = _stableAddress[token];\r\n    require(tokenAddr != address(0), \"Presale Swap: Invalid token name\");\r\n    uint256 amount = ERC20(tokenAddr).balanceOf(address(this));\r\n    require(amount > 0, \"Presale Swap: zero balance\");\r\n    ERC20(tokenAddr).transfer(wallet, amount);\r\n  }\r\n\r\n  function sendBNB(address wallet) public onlyOwner {\r\n    require(address(this).balance > 0, \"Presale Swap: BNB balance is zero !\");\r\n    address payable receiver = payable(wallet);\r\n    receiver.transfer(address(this).balance);\r\n  }\r\n\r\n  function getStableUsers(string memory token)\r\n    public\r\n    view\r\n    returns (address[] memory value)\r\n  {\r\n    if (compareStrings(token, \"busd\")) {\r\n      value = _busdBuyers;\r\n    } else if (compareStrings(token, \"usdt\")) {\r\n      value = _usdtBuyers;\r\n    } else if (compareStrings(token, \"usdc\")) {\r\n      value = _usdcBuyers;\r\n    }\r\n  }\r\n\r\n  function getStableAmount(string memory token) public view returns (uint256) {\r\n    address tokenAddr = _stableAddress[token];\r\n    if (tokenAddr == address(0)) {\r\n      return 0;\r\n    }\r\n    uint256 amount = ERC20(tokenAddr).balanceOf(address(this));\r\n    return amount;\r\n  }\r\n\r\n  function setTokenPrice(uint256 price) public onlyOwner {\r\n    _tokenPrice = price;\r\n  }\r\n\r\n  function getTokenPrice() public view returns (uint256) {\r\n    return _tokenPrice;\r\n  }\r\n\r\n  function getTokenAmount() public view returns (uint256) {\r\n    uint256 balance = ERC20(_tokenMRW).balanceOf(address(this));\r\n    return balance;\r\n  }\r\n\r\n  function getBNBAmount() public view returns (uint256) {\r\n    return address(this).balance;\r\n  }\r\n\r\n  function getBNBPrice() public view returns (uint256) {\r\n    (, int256 price, , , ) = _priceFeed.latestRoundData();\r\n    return uint256(price);\r\n  }\r\n\r\n  function pause() external onlyOwner {\r\n    super._pause();\r\n  }\r\n\r\n  function unpause() external onlyOwner {\r\n    super._unpause();\r\n  }\r\n\r\n  function compareStrings(string memory a, string memory b)\r\n    internal\r\n    view\r\n    returns (bool)\r\n  {\r\n    return (keccak256(abi.encodePacked((a))) ==\r\n      keccak256(abi.encodePacked((b))));\r\n  }\r\n}\r\n",
  "sourcePath": "F:\\MyWork\\business\\MRW_Token\\src\\contracts\\Presale_Swap.sol",
  "compiler": {
    "name": "solc",
    "version": "0.8.4+commit.c7e474f2.Emscripten.clang"
  },
  "schemaVersion": "3.4.10",
  "updatedAt": "2022-09-19T07:43:28.838Z",
  "networkType": "ethereum",
  "devdoc": {
    "kind": "dev",
    "methods": {
      "owner()": {
        "details": "Returns the address of the current owner."
      },
      "paused()": {
        "details": "Returns true if the contract is paused, and false otherwise."
      },
      "renounceOwnership()": {
        "details": "Leaves the contract without owner. It will not be possible to call `onlyOwner` functions anymore. Can only be called by the current owner. NOTE: Renouncing ownership will leave the contract without an owner, thereby removing any functionality that is only available to the owner."
      },
      "transferOwnership(address)": {
        "details": "Transfers ownership of the contract to a new account (`newOwner`). Can only be called by the current owner."
      }
    },
    "version": 1
  },
  "userdoc": {
    "kind": "user",
    "methods": {
      "constructor": {
        "notice": "Network: BSC Testnet Aggregator: BNB/USD Address: 0x2514895c72f50D8bd4B4F9b1110F0D6bD2c97526"
      }
    },
    "version": 1
  }
}